:100000001DC02CC02BC02AC029C0D0C027C026C00C
:1000100025C024C023C022C021C020C01FC00103AE
:10002000000004000000000038000000000037005D
:1000300002020202020201020408102011241FBE63
:10004000CFE5D2E0DEBFCDBF20E0A0E6B0E001C04A
:100050001D92A936B207E1F7F3D03CC1D1CF3FB72B
:10006000F8948091650090916600A0916700B0912E
:10007000680022B708B601FE05C02F3F19F00196AF
:10008000A11DB11D3FBFBA2FA92F982F8827BC01F2
:10009000CD01620F711D811D911D43E0660F771F19
:1000A000881F991F4A95D1F7089587FF09C08F7758
:1000B00031F1813031F1823031F1833031F18FEF24
:1000C00090E0FC01EA5CFF4F2491805D9F4FFC01B2
:1000D0008491882399F090E0880F991FFC01E65DD8
:1000E000FF4FA591B491FC01EC5DFF4F8591949178
:1000F0008FB7F894EC91E22BEC938FBF089585E0D5
:10010000DFCF82E0DDCF84E0DBCF83E0D9CF87FF94
:1001100009C08F7771F1813071F1823071F18330D4
:1001200071F18FEF90E0FC01E25EFF4F3491FC0132
:10013000EA5CFF4F2491FC01E05DFF4FE491EE2368
:10014000B9F0332329F03130E1F48AB58F778ABDD5
:10015000F0E0EE0FFF1FEC5DFF4FA591B4918FB75C
:10016000611120C0F894EC9120952E232C938FBF21
:10017000089585E0D7CF82E0D5CF84E0D3CF83E068
:10018000D1CF323019F48AB58F7DE1CF333021F4ED
:1001900080B78F7D80BFDCCF3430D1F68CB58F7DBA
:1001A0008CBDD6CFF894EC912E2BE0CF1F920F92FE
:1001B0000FB60F9211242F933F938F939F93AF937A
:1001C000BF938091610090916200A0916300B09113
:1001D00064003091600026E0230F2D3768F129E894
:1001E000230F0396A11DB11D209360008093610031
:1001F00090936200A0936300B093640080916500C7
:1002000090916600A0916700B09168000196A11DD1
:10021000B11D8093650090936600A0936700B09332
:100220006800BF91AF919F918F913F912F910F9057
:100230000FBE0F901F9018950296A11DB11DD4CF2F
:1002400083E08ABD82E083BF789489B7826089BFEA
:1002500080E48CBD8FEF8DBD84EC80BF83E886B9D0
:1002600080E023DF81E021DF60E081E050DF11E00A
:1002700017B987B187B9369A3699FECF94B185B14F
:1002800089279827892760E0893392400CF461E040
:1002900080E03DDFE4DEEB0189E1C82ED12CE12CCA
:1002A000F12CDDDE6C1B7D0B683E734068F0C114E1
:1002B000D104E104F104E1F281E0C81AD108E108B7
:1002C000F108C851DC4FEDCFC114D104E104F104B1
:0802D00041F7CECFF894FFCFF7
:00000001FF
